:03000000020B42AE
:0C0B4200787FE4F6D8FD758121020B8954
:1010320043BC807F0A7E00120FB853DEFC43DE0CF5
:0A10420053BCDF53A8DF43DE202279
:100F7700E4FDFC53BCF0EF444042BCE5BC30E5FB6C
:100F870053BCDF53BCBFAFBDEFADBEFCEDAE04FF3E
:010F97002237
:0D000E00E4F5C7F5C5F5C675C380F5C4223D
:100FF70075C78075F50C75C5038FC4EEF5C375C647
:0E1007005A75C6A57F0A7E00120FB802000EB1
:100F550075C78075F50C75C5028FC4EEF5C3AF0571
:100F65008FC275C65A75C6A57F0A7E00120FB802D4
:020F7500000E6C
:100F980075C78075F50C75C5018FC4EEF5C375C6A8
:100FA8005A75C6A57F0A7E00120FB8AFC202000E9E
:100D320075940A759370E4F592F59190FE1174CB57
:100D4200F07596CCE4F59575B202F5B190FE137488
:100D5200F8F075B41EE4F5B3A37481F075CA01E42A
:100D6200F5C9A37413F075CC10E4F5CBA374AEF0FF
:0B0D720075E260E4F5E1A3740FF022CD
:100FD8003D3D3D3D3D3D3D3D20636F64652073745F
:0F0FE800617274203D3D3D3D3D3D3D3D0D0A0094
:100E4B0043BA80E4900256F0120D32121032121097
:100E5B0091120006120087120E081210641210BABB
:100E6B0012107B12104C1210CDD2AF120EC97BFF99
:0F0E7B007A0F79D81201091208F01209DE80F8F7
:100E080043BA8090FEB6E0F090FEEDE4F090FEEA82
:100E18007470F0A3F090FEED7411F090FEF274047B
:100E2800F0A37451F090FEF0E4F0A37431F090FE5A
:100E3800B5E04450F090FEFD7480F090FEE0E04490
:030E480001F02294
:05000600D288D2A822FF
:1010BA00438E805389F0758ACD758CD4C28DD28CBB
:0310CA00D2A92286
:0A008700538EBF53890F43891022E6
:1010CD0053D1FDE4F5D575D4DC43D10843AF2022CF
:10104C0053A23F759850438E01438E0475D7E875B3
:08105C00D6FF438E10D2AC2236
:10107B0075841043844043D12075D3E875D2FF4368
:06108B00D18043AF1022EA
:100591005468652076616C7565206F662073746997
:1005A100725F72756E5F74696D6520697320256471
:1005B100200D0A005468652076616C7565206F66B0
:1005C10020737469725F73746F705F74696D6520F5
:1005D1006973202564200D0A005468652076616CDA
:1005E1007565206F66206369725F72756E5F7469ED
:1005F1006D65206973202564200D0A00546865200B
:1006010076616C7565206F66206369725F73746FC4
:10061100705F74696D65206973202564200D0A007F
:100621005468652076616C7565206F662074656D10
:10063100705F616C61726D5F76616C7565312069A7
:1006410073202564200D0A005468652076616C755D
:1006510065206F662074656D705F616C61726D5F9E
:1006610076616C756532206973202564200D0A005E
:100671005468652076616C7565206F662074656DC0
:10068100705F616C61726D5F76616C756533206955
:1006910073202564200D0A005468652076616C750D
:1006A10065206F66206C6576656C5F64656C617949
:0F06B1005F74696D65206973202564200D0A0050
:100EC9007F207E00120F98EFB4FF30900240740328
:100ED900F0E4900234F0A3F0A3F0900242740AF017
:100EE900A3F0900245F0A3F0900255743CF09001F4
:0E0EF9000A745AF0A3F0A3F0120403020A9345
:10040300E4FFFE120FF7900240E0900233F0FDE4A8
:10041300FFFE120F55900234E0FD7F017E00120FA4
:1004230055900242E0900237F0900243E090023888
:10043300F0900245E0900239F0900246E090023AD3
:10044300F0900235E0FD7F037E00120F55900237D6
:10045300E0FD7F047E00120F55900238E0FD7F051A
:100463007E00120F55900239E0FD7F067E00120FC9
:1004730055900239E0FD7F077E00120F5590023A36
:10048300E0FD7F087E00120F55900255E090023B7D
:10049300F0FD7F097E00120F5590010AE090023DA6
:1004A300F090010BE090023EF090010CE090023FCF
:1004B300F090023DE0FD7F0A7E00120F5590023E50
:1004C300E0FD7F0B7E00120F5590023FE0FD7F0C95
:1004D3007E00120F557D587F207E00120F557BFF43
:1004E3007A057991900237E0FF90020EE4F0A3EFD2
:1004F300F01201097BFF7A0579B5900238E0FF908D
:10050300020EE4F0A3EFF01201097BFF7A0579DA1A
:10051300900239E0FF90020EE4F0A3EFF01201091C
:100523007BFF7A0579FD90023AE0FF90020EE4F03A
:10053300A3EFF01201097BFF7A06792190023DE0D7
:10054300FF90020EE4F0A3EFF01201097BFF7A069D
:10055300794990023EE0FF90020EE4F0A3EFF0121F
:1005630001097BFF7A06797190023FE0FF90020E4A
:10057300E4F0A3EFF01201097BFF7A067999900268
:0E0583003BE0FF90020EE4F0A3EFF00201094E
:100A9300E4FFFE120F98900233EFF01210DD7F0196
:100AA3007E00120F98900234EFF01210A67F037E9F
:100AB30000120F98900235EFF01210ED7F067E00C2
:100AC300120F98900235EFF0A3E0FF1210F77F04A6
:100AD3007E00120F98900237EFF0900242F07F05EC
:100AE3007E00120F98900238EFF0900243F07F07D8
:100AF3007E00120F98900239EFF0900245F07F08C4
:100B03007E00120F9890023AEFF0900246F07F0AAF
:100B13007E00120F9890023DEFF090010AF07F0BD8
:100B23007E00120F9890023EEFF090010BF07F0CC5
:0F0B33007E00120F9890023FEFF090010CF0221D
:1007EB0060FC010F03D503FA04200446046D049545
:1007FB0004BE04E70510053A0565059005BB05E742
:10080B000613063F066C069906C606F30720074D2E
:10081B00077A07A707D40800082D0859088508B1DF
:10082B0008DC09070931095B098409AD09D609FD03
:10083B000A240A4B0A710A960ABB0ADE0B020B2426
:10084B000B460B670B870BA70BC60BE40C020C1E9E
:10085B000C3A0C560C700C8A0CA40CBC0CD40CEC83
:10086B000D020D190D2E0D430D570D6B0D7E0D90B9
:10087B000DA20DB40DC50DD50DE50DF50E040E1223
:10088B000E200E2E0E3B0E480E550E610E6D0E7881
:10089B000E830E8D0E970EA10EAB0EB40EBD0EC6B3
:1008AB000ECF0ED70EDF0EE70EEF0EF60EFD0F047A
:1008BB000F0B0F110F170F1D0F230F290F2F0F35B5
:1008CB000F3A0F3F0F440F490F4E0F530F580F5C4A
:1008DB000F600F650F690F6D0F710F740F780F7C21
:0E0BCE0090020FEBF0A3EAF0A3E9F0A3EDF024
:100BDC00E4900216F0A3F0900215F0900212E014CB
:100BEC00FF900215E0FEC39F505A90020FE0FBA34A
:100BFC00E0FAA3E0F975F002EEA4F58285F0831219
:100C0C000715FF900213E0FCA3E0FDC39FEC95F0E9
:100C1C00402AA3E02401FFE433FEEF25E0FFEE338E
:100C2C00FE8F828E83120715FFC3ED9FEC95F0505B
:100C3C000B900215E0FFA3E4F0A3EFF0900215E097
:0C0C4C0004F08097900216E0FEA3E0FF89
:010C58002279
:0500260090020BEFF059
:10002B00E490020DF0A3F090020CF090020BE0FFB5
:10003B00120F7790020EE02FF090020DE03EF09041
:10004B00020CE004F0E0C3940A40E090020DE0FEE5
:10005B00A3E0FF7C007D0A1206C090020DEEF0A318
:10006B00EFF07B017A01790F90020DE0FFA3E09096
:0C007B000213CFF0A3EFF07D7E020BCE4D
:10109100E4900254F090025104F0A3F0A3F0D2C303
:0510A100D2C2D2C12201
:03000300021015D3
:10101500C0E0C083C082758BDC758DFF900254746F
:0D10250001F0D28ED2ABD082D083D0E03269
:03001B00020D7D56
:100D7D00C0E0C083C082C0D0900254E064017024F2
:100D8D00F0900251E0B40102C2C1900252E0B401F0
:100D9D0002C2C2900253E0B40102C2C3758BF77553
:100DAD008DFF800AD2C3D2C2D2C1C28EC2ABD0D007
:070DBD00D082D083D0E032A8
:0A10ED00EFB40103C2A722D2A7222C
:0A10F700EFB40103C2A722D2A72222
:10106400E4900001F0900082F0900102F0F0A3F00F
:07107400A3F0A3F0A3F0229A
:03009300020C5903
:100C5900C0E0C083C082C0D075D000C007E5843031
:100C6900E1285384FD900102E0601AA3E0FF04F03B
:100C790074022FF582E43400F583E0F585900102D2
:100C8900E014F08005900103E4F0E58430E033538B
:100C990084FE900001E07021900106E0D394804029
:100CA90002E4F0900106E02482F582E43400F58341
:100CB900E585F0900106E004F0900104E4F0A374E6
:0D0CC90032F0D007D0D0D082D083D0E032FE
:03000B00020E8A58
:100E8A00C0E0C083C082C0D0900104E07002A3E039
:100E9A006024900105E024FFF0900104E034FFF0A3
:100EAA00E07002A3E0700F900106E0D394004006C0
:0F0EBA009000017401F0D0D0D082D083D0E0320C
:03002300020F07C2
:100F0700C0E0C0D0A299E43355986007A299B3E432
:100F1700335298A298E43355986007A298B3E43304
:070F27005298D0D0D0E03257
:081101008F993099FDC299227B
:1010A600EF90FEF9B401087404F0A37451F022E441
:0410B600F0A3F02291
:1010DD00EF75F0B8A4FF90FEFBE5F0F0A3EFF02262
:100FB800D3EF9400EE9400401600000075080B75FE
:0F0FC80009BED509FDD508FAEF1F70E41E80E1C0
:010FD70022F7
:1008F000900001E0640160030209DDF0900106F060
:10090000900082E0645160030209DDA3E024EB6003
:10091000361460472476B4090040030209DD9009CB
:100920002C75F003A4C58325F0C5837302095E020C
:10093000096702096F02097802098602098E020915
:10094000960209B00209D29000027451F0A3741506
:10095000F09001027402F043840222020CD690004F
:1009600084E024FF92A822900084E0FF0210A69069
:100970000084E024FF92FD22900084E0FF9002407A
:10098000F01210DD8054900084E0FF0210ED900022
:1009900084E0FF0210F7900084E090010AF09000DC
:1009A00085E090010BF0900086E090010CF0802A29
:1009B000900084E0900242F0900085E0900243F0C5
:1009C000900086E0900245F0900087E0900246F0AB
:0E09D0008008900084E0900255F0120403228B
:100DC4009000027451F0A37417F0900107E09000B2
:100DD40004F0900108E0900005F0900109E0900013
:100DE40006F0900257E0900007F0900258E090005F
:100DF40008F0900259E0900009F09001027405F0A7
:040E040043840222FF
:100CD6009000027451F0A37416F0900240E0900068
:100CE60004F0900242E0900005F0900243E090008C
:100CF60006F0900245E0900007F0900246E0900072
:100D060008F090010AE0900009F090010BE09000D5
:100D16000AF090010CE090000BF0900255E0900074
:0C0D26000CF0900102740BF043840222D8
:0408EB0041025A006C
:1009DE00900256E064016003020A927F0C12002618
:1009EE00900107EFF090010AE0FEEFC39E4007E48E
:1009FE00900251F080069002517401F07F0D1200AA
:100A0E0026900108EFF090010BE0FEEFC39E400729
:100A1E00E4900252F080069002527401F07F0E12A2
:100A2E000026900109EFF090010CE0FEEFC39E400E
:100A3E0007E4900253F080069002537401F0A2ED89
:100A4E0072C072EF72B372B672C872C972B5E43305
:100A5E00900257F0A2B772B672F872F972FA72FB80
:100A6E00729172C7E433A3F0A296729072EB7297F2
:100A7E0072EA729372E972CCE433A3F0120DC4E4FD
:050A8E00900256F02269
:03009B00020F2E23
:080F2E00C0E0C083C082C0D006
:100F3600900256E0701090025AE004F0E0B46406A5
:060F46009002567401F058
:090F4C00D0D0D082D083D0E03275
:100B4E00020E4BE493A3F8E493A34003F68001F264
:100B5E0008DFF48029E493A3F85407240CC8C333A8
:100B6E00C4540F4420C8834004F456800146F6DF77
:100B7E00E4800B01020408102040809007EBE47E15
:100B8E00019360BCA3FF543F30E509541FFEE4936C
:100B9E00A360010ECF54C025E060A840B8E493A333
:100BAE00FAE493A3F8E493A3C8C582C8CAC583CA5E
:100BBE00F0A3C8C582C8CAC583CADFE9DEE780BE16
:0108EF000008
:1006C000BC000BBE0029EF8DF084FFADF022E4CC1E
:1006D000F875F008EF2FFFEE33FEEC33FCEE9DECE7
:1006E000984005FCEE9DFE0FD5F0E9E4CEFD22ED2D
:1006F000F8F5F0EE8420D21CFEADF075F008EF2F77
:10070000FFED33FD4007985006D5F0F222C398FD67
:050710000FD5F0EA2204
:10071500BB0110E58229F582E5833AF583E0F5F022
:10072500A3E0225009E92582F886F008E622BBFEFF
:100735000AE92582F8E2F5F008E222E5832AF58345
:08074500E993F5F0A3E993220A
:10009E00E508240EF582E43402F583E0050822908B
:1000AE00020B30070390020EE475F0011207A50251
:1000BE00074D2000E97F2ED2008018EF540F2490B8
:1000CE00D43440D4FF30040BEF24BFB41A005003D5
:1000DE002461FFE50960021509050CE50C700205A7
:1000EE000B30070E90020BE475F0011207A5EF021C
:1000FE0007930211017403D2078003E4C207F508C7
:10010E0090020B1207BCE4F509F50BF50CE509603E
:10011E00077F201200E180F5750AFFC201C200C2FE
:10012E0002C203C205C206C2081200ADFF700D3036
:10013E0007057F001200F2AF0CAE0B22B4255FC292
:10014E00D5C2041200ADFF24D0B40A00501A75F0C7
:10015E000A780930D50508B6FF0106C6A426F62092
:10016E00D5047002D20380D924CFB41A00EF500404
:10017E00C2E5D2040202F3D20180C6D20080C0D200
:10018E000280BCD2D580BAD20580B47F201200E1A5
:10019E002002077401B5090040F112009EFF120003
:1001AE00E102011BD208D206809512009EFB1200BE
:1001BE009EFA12009EF94A4B700679C47A037BFFB1
:1001CE0020022EE509602A7E008E827583001207BA
:1001DE006660060EEE650A70F0C2D5EBC0E0EAC0AE
:1001EE00E0E9C0E0EE12033AD0E0F9D0E0FAD0E058
:1001FE00FB12074DFF60AAEBC0E0EAC0E0E9C0E0E9
:10020E001200E1D0E02401F9D0E03400FAD0E0FB96
:10021E00E50A0460DCD50AD980877BFF7A0379363C
:10022E00D202809C791080027908C206C20880082A
:10023E00D2D5790A8004790AC2D5E50A047002F58E
:10024E000AE4FAFDFEFF12009EFC7B082001131249
:10025E00009EFD7B1030000A12009EFE12009EFFD3
:10026E007B20EC3382D592D55013C3E43000069F29
:10027E00FFE49EFEE42001039DFDE49CFCE4CBF82C
:10028E00C201EC700CCFCECDCCE824F8F870F38020
:10029E0017C3EF33FFEE33FEED33FDEC33FCEB33E0
:1002AE00FB994002FB0FD8E9EB300105F8D0E0C412
:1002BE0048B201C0E00AEC4D4E4F78207B0070C270
:1002CE00EAB50A0040BCC0E012033CD0F0D0E020FA
:1002DE000104C4C0E0C4B201C0F01200CAD0F0D50F
:1002EE00F0EB02011B1207C501B853023258018907
:1002FE004C01854202364F023E44023E49019E4366
:08030E000244550228460228B2
:100316004502284703E450018D2D01912E01B42B8F
:1003260001952301B22003CD2A014D48000001ACFE
:100336003F3F3F00790AA2D5200314300509B910C2
:10034600020404B9080104A2D520060250010420C3
:1003560002689202B509005034C0E07F20300319CC
:100366007F30A20272067205500F120393C202C2B8
:1003760006C205C2087F30800F300503E9C0E012CF
:1003860000E1300503D0E0F9D0E0B509CC3005171F
:100396007F30B9100C1200E17F583004077F788057
:1003A60003B908031200E13002057F2D0200E17F48
:1003B600202008F87F2B2006F322920280CF286E99
:1003C600756C6C2900D20112009E3001F8C20178CA
:1003D6000930D50108F602014D2D50434958120047
:1003E6009E2403B405004001E49003DF931200D27B
:0D03F600743A1200D2D203750904020232DB
:10074D00BB010689828A83E0225002E722BBFE02AA
:09075D00E32289828A83E49322DD
:10076600BB010CE58229F582E5833AF583E0225048
:1007760006E92582F8E622BBFE06E92582F8E22292
:0D078600E58229F582E5833AF583E49322AC
:10079300BB010689828A83F0225002F722BBFE0145
:0207A300F3223F
:1007A500F8E0FBA3A3E0F925F0F0E58215827002DD
:0707B5001583E0FA38F02281
:0907BC00EBF0A3EAF0A3E9F0223E
:1007C500D083D082F8E4937012740193700DA3A3C3
:1007D50093F8740193F5828883E4737402936860D7
:0607E500EFA3A3A380DFD7
:00000001FF
