:030000000209A949
:0C09A900787FE4F6D8FD7581210209F08A
:100F450043BC807F0A7E00120EE853DEFC43DE0CB4
:0A0F550053BCDF53A8DF43DE202267
:100EA700E4FDFC53BCF0EF444042BCE5BC30E5FB3D
:100EB70053BCDF53BCBFAFBDEFADBEFCEDAE04FF0F
:010EC7002208
:0D000E00E4F5C7F5C5F5C675C380F5C4223D
:100F270075C78075F50C75C5038FC4EEF5C375C617
:0E0F37005A75C6A57F0A7E00120EE802000E53
:100E850075C78075F50C75C5028FC4EEF5C3AF0542
:100E95008FC275C65A75C6A57F0A7E00120EE80276
:020EA500000E3D
:100EC80075C78075F50C75C5018FC4EEF5C375C679
:100ED8005A75C6A57F0A7E00120EE8AFC202000E40
:100E340075940A759370E4F592F5917596CEF595CF
:100E440075B220F5B175B41EF5B375CA01F5C9754F
:0A0E5400CC10F5CB75E260F5E12249
:100F08003D3D3D3D3D3D3D3D20636F64652073742F
:0F0F1800617274203D3D3D3D3D3D3D3D0D0A0064
:100D670043BA80120E34120F45120FA61200061254
:100D77000FF5120CAC120F5F120FE2120F90120F49
:100D870078D2AF120E5E7BFF7A0F7908120111122B
:070D97000D9E12002680F8FA
:100CAC0043BA8090FEB6E0F090FEEDE4F090FEEAE0
:100CBC007470F0A3F090FEED7411F090FEF27404D9
:100CCC00F0A37451F090FEF0E4F0A37431F090FEB8
:100CDC00B5E04450F090FEFD7480F090FEE0E044EE
:030CEC0001F022F2
:05000600D288D2A822FF
:100FE200438E805389F0758ACD758CD4C28DD28C94
:030FF200D2A9225F
:0A0FF500538EBF53890F4389102269
:100F780053A23F759850438E01438E0475D7E87588
:080F8800D6FF438E10D2AC220B
:100F900075841043844043D12075D3E875D2FF4354
:060FA000D18043AF1022D6
:100E5E007F107E00120EC8EFB4FF1990023B743360
:100E6E00F0A37411F0A374A1F0A37450F0A3F0A337
:070E7E00F0120C0F0207DD6A
:100C0F00E4FFFE120F2790023BE0FDE4FFFE120E01
:100C1F008590023CE0FD7F017E00120E8590023D23
:100C2F00E0FD7F027E00120E8590023EE0FD7F0305
:100C3F007E00120E8590023FE0FD7F047E00120EB3
:100C4F0085900240E0FD7F057E00120E857D587F66
:060C5F00107E00020E856C
:1007DD00E4FFFE120EC890023BEFF0E075F0B8A4F6
:1007ED00FFAEF090FEF9EEF0A3EFF0A3EEF0A3EF65
:1007FD00F07F017E00120EC890023CEFF0E0FFC3C7
:10080D0074019F5401FEEFC45401FFC374019FFD99
:10081D00AF06120FCE7F027E00120EC890023DEF82
:10082D00F030E004D2A88002C2A890023DE0C313CC
:10083D00FF120FBA7F037E00120EC890023EEFF03A
:10084D007F047E00120EC890023FEFF07F057E0000
:10085D00120EC8900240EFF090023EE090010BF0B6
:0B086D0090023FE090010CF0A3EFF0C0
:01087800225D
:10062C0060FC011003D503FA04200446046D049504
:10063C0004BE04E70510053A0565059005BB05E702
:10064C000613063F066C069906C606F30720074DEF
:10065C00077A07A707D40800082D0859088508B1A0
:10066C0008DC09070931095B098409AD09D609FDC4
:10067C000A240A4B0A710A960ABB0ADE0B020B24E7
:10068C000B460B670B870BA70BC60BE40C020C1E5F
:10069C000C3A0C560C700C8A0CA40CBC0CD40CEC44
:1006AC000D020D190D2E0D430D570D6B0D7E0D907A
:1006BC000DA20DB40DC50DD50DE50DF50E040E12E4
:1006CC000E200E2E0E3B0E480E550E610E6D0E7842
:1006DC000E830E8D0E970EA10EAB0EB40EBD0EC674
:1006EC000ECF0ED70EDF0EE70EEF0EF60EFD0F043B
:1006FC000F0B0F110F170F1D0F230F290F2F0F3576
:10070C000F3A0F3F0F440F490F4E0F530F580F5C0A
:10071C000F600F650F690F6D0F710F740F780F7CE1
:0E0A3500900210EBF0A3EAF0A3E9F0A3EDF0BD
:100A4300E4900217F0A3F0900216F0900213E01462
:100A5300FF900216E0FEC39F505A900210E0FBA3E2
:100A6300E0FAA3E0F975F002EEA4F58285F08312B3
:100A7300056FFF900214E0FCA3E0FDC39FEC95F02B
:100A8300402AA3E02401FFE433FEEF25E0FFEE3329
:100A9300FE8F828E8312056FFFC3ED9FEC95F0509E
:100AA3000B900216E0FFA3E4F0A3EFF0900216E030
:0C0AB30004F08097900217E0FEA3E0FF23
:010ABF002214
:050BAE0090020CEFF0C5
:100BB300E490020EF0A3F090020DF090020CE0FF1F
:100BC300120EA790020FE02FF090020EE03EF0907D
:100BD300020DE004F0E0C3940A40E090020EE0FE50
:100BE300A3E0FF7C007D0A12051A90020EEEF0A32B
:100BF300EFF07B017A01791090020EE0FFA3E09001
:0C0C03000214CFF0A3EFF07D7E020A3552
:100D9E0090010EE06401702B7F0C120BAE900108D7
:100DAE00EFF090010BE0FEEFC39E400AD2C4D2C317
:100DBE00D2C2D2C18008C2C4C2C3C2C2C2C1E490F0
:040DCE00010EF02200
:100FA600E4900246F0900243F0A3F0A3F0D2C3D23D
:040FB600C2D2C122C0
:03000300020E06E4
:100E0600C0E0C083C082C0D075D000C00690024149
:100E1600E0FEA3E0F58BEEF58D9002467401F0D26C
:0E0E26008ED2ABD006D0D0D082D083D0E032B6
:03001B00020C656F
:100C6500C0E0C083C082C0D0900246E06401702419
:100C7500F0900243E0B40102C2C1900244E0B40125
:100C850002C2C2900245E0B40102C2C3758BF7757A
:100C95008DFF800AD2C3D2C2D2C1C28EC2ABD0D020
:070CA500D082D083D0E032C1
:100FBA00EF75F04BA42490FEE5F034E2900241F084
:040FCA00A3CEF022A0
:100FCE00EFB40104C2A68002D2A6EDB40103C2A7FB
:040FDE0022D2A72252
:04072C004101070080
:100F5F00E4900000F0A3F0900082F0900102F0F016
:090F6F00A3F0A3F0A3F0A3F0220B
:0300A300020AC08E
:100AC000C0E0C083C082C0D075D000C007E58430CC
:100AD000E12F5384FD900000E4F0900102E0601AE1
:100AE000A3E0FF04F074022FF582E43400F583E004
:100AF000F585900102E014F08007900103E4F0C254
:100B0000FEE58430E0335384FE900001E0702190D4
:100B10000106E0D394804002E4F0900106E02482D4
:100B2000F582E43400F583E585F0900106E004F0F9
:100B3000900104E4F0A37432F0D007D0D0D082D07A
:040B400083D0E0324C
:03000B00020CEFF5
:100CEF00C0E0C083C082C0D0900104E07002A3E0D6
:100CFF006024900105E024FFF0900104E034FFF040
:100D0F00E07002A3E0700F900106E0D3940040065C
:0F0D1F009000017401F0D0D0D082D083D0E032A8
:03002300020DD2F9
:100DD200C0E0C083C082C0D0A299E4335598600CB1
:100DE200A299B3E4335298900107E4F0A298E43355
:100DF20055986007A298B3E4335298D0D0D082D0ED
:040E020083D0E03287
:0B0094008F99900107E070FA04F02241
:100EE800D3EF9400EE9400401600000075080B75CF
:0F0EF80009BED509FDD508FAEF1F70E41E80E191
:010F070022C7
:10002600900001E064017065F07B017A00798290AE
:100036000106E024FEFD120B4AAD07AC0690010650
:10004600E0FB2480F582E43400F583E0FE74812B26
:10005600F582E43400F583E0FBEBFFE4900106F063
:10006600EDB50729ECB50625900082E0B4351EA350
:10007600E024FC600F24FE600E24F6600D240D7053
:0D0086000C02087902091102001E12073158
:01009300224A
:100879009002377403F0900086A3E025E0900236D9
:10088900F0900084E0FEA3E0FDEDFF900239EEF068
:10089900A3EFF09000027435F0A37403F0900236D0
:1008A900E0900004F0900236E0F9C313FD90023A9B
:1008B900E02DFD900239E03400FCC3EF9DEE9C5021
:1008C90040E4900235F0900234F0900234E0FD905B
:1008D9000237E0FC04F074022CF582E43400F5835D
:1008E900EDF0900235E0FD900237E0FC04F074026F
:1008F9002CF582E43400F583EDF00FBF00010E8082
:08090900A4E92403FF020D2EF6
:100911009002377403F0900086A3E025E090023640
:10092100F0900084E0FEA3E0FDEDFF900239EEF0CF
:10093100A3EFF09000027435F0A37404F090023636
:10094100E0900004F0900236E0F9C313FD90023A02
:10095100E02DFD900239E03400FCC3EF9DEE9C5088
:1009610040E4900235F0900234F0900234E0FD90C2
:100971000237E0FC04F074022CF582E43400F583C4
:10098100EDF0900235E0FD900237E0FC04F07402D6
:100991002CF582E43400F583EDF00FBF00010E80E9
:0809A100A4E92403FF020D2E5E
:01001E0022BF
:100731009002387407F0900088E0900236F0900043
:1007410084E0FEA3E0FDEDFF900239EEF0A3EFF0AF
:1007510078027C007D017B017A0079827E007F0630
:100761001204DB900239E0FEA3E0FF900236E0C301
:1007710013FD90023AE02DFD900239E03400FCC3F4
:10078100EF9DEE9C5032900238E02482F582E434F1
:1007910000F583E0900234F0900238E02483F58282
:1007A100E43400F583E0900235F0900238E0240251
:1007B100F00FBF00010E80B37D06120B44AD07ACF4
:1007C10006EC900008F0A3EFF09001027408F07FAE
:0C07D100057E00120EE8439A02020C0F95
:060B44007B017A0079023A
:050B4A0090020CEDF02B
:100B4F0074FFA3F0A3F0120501FF90020DE0F0A3D4
:100B5F00E06FF0E4FD90020DE0FEA3E0FF30E0193E
:100B6F00EEC313FEEF13FFEE64A0FEEF6401FF90E0
:100B7F00020DEEF0A3EFF0800B90020DE0C313F027
:100B8F00A3E013F00DEDB408CC740129F9E43AFA9F
:0E0B9F0090020CE014F070AEA3E0FEA3E0FFA5
:010BAD002225
:020D2E00AC0710
:100D3000AD04120B44AB07AA06EAFF74022CF5823D
:100D4000E43400F583EFF0AF0374032CF582E43450
:100D500000F583EFF0EC2402900102F07F057E00A5
:060D6000120EE8439A02A6
:010D6600226A
:1009B500020D67E493A3F8E493A34003F68001F2E4
:1009C50008DFF48029E493A3F85407240CC8C33343
:1009D500C4540F4420C8834004F456800146F6DF12
:1009E500E4800B010204081020408090062CE47E70
:1009F500019360BCA3FF543F30E509541FFEE49307
:100A0500A360010ECF54C025E060A840B8E493A3CD
:100A1500FAE493A3F8E493A3C8C582C8CAC583CAF8
:100A2500F0A3C8C582C8CAC583CADFE9DEE780BEB0
:0107300000C8
:10040B00E709F608DFFA8046E709F208DFFA803ED3
:10041B0088828C83E709F0A3DFFA8032E309F608C0
:10042B00DFFA8078E309F208DFFA807088828C8328
:10043B00E309F0A3DFFA806489828A83E0A3F608DC
:10044B00DFFA805889828A83E0A3F208DFFA804CB6
:10045B0080D280FA80C680D4806980F2803380108D
:10046B0080A680EA809A80A880DA80E280CA8033F6
:10047B0089828A83ECFAE493A3C8C582C8CCC5836E
:10048B00CCF0A3C8C582C8CCC583CCDFE9DEE7803E
:10049B000D89828A83E493A3F608DFF9ECFAA9F0BD
:1004AB00EDFB2289828A83ECFAE0A3C8C582C8CC13
:1004BB00C583CCF0A3C8C582C8CCC583CCDFEADE2C
:1004CB00E880DB89828A83E493A3F208DFF980CC8E
:1004DB0088F0EF60010E4E60C388F0ED2402B40487
:1004EB000050B9F582EB2402B4040050AF2323452E
:0604FB00822390045B73F4
:10050100BB010689828A83E0225002E722BBFE02F8
:09051100E32289828A83E493222B
:10051A00BC000BBE0029EF8DF084FFADF022E4CCC5
:10052A00F875F008EF2FFFEE33FEEC33FCEE9DEC8E
:10053A00984005FCEE9DFE0FD5F0E9E4CEFD22EDD4
:10054A00F8F5F0EE8420D21CFEADF075F008EF2F1E
:10055A00FFED33FD4007985006D5F0F222C398FD0F
:05056A000FD5F0EA22AC
:10056F00BB0110E58229F582E5833AF583E0F5F0CA
:10057F00A3E0225009E92582F886F008E622BBFEA7
:10058F000AE92582F8E2F5F008E222E5832AF583ED
:08059F00E993F5F0A3E99322B2
:1000A600E508240FF582E43402F583E00508229082
:1000B600020C30070390020FE475F0011205E60208
:1000C60005012000E97F2ED2008018EF540F2490FE
:1000D600D43440D4FF30040BEF24BFB41A005003CD
:1000E6002461FFE50960021509050CE50C7002059F
:1000F6000B30070E90020CE475F0011205E6EF02D4
:1001060005D40200947403D2078003E4C207F508FD
:1001160090020C1205FDE4F509F50BF50CE50960F6
:10012600077F201200E980F5750AFFC201C200C2EE
:1001360002C203C205C206C2081200B5FF700D3026
:1001460007057F001200FAAF0CAE0B22B4255FC282
:10015600D5C2041200B5FF24D0B40A00501A75F0B7
:100166000A780930D50508B6FF0106C6A426F6208A
:10017600D5047002D20380D924CFB41A00EF5004FC
:10018600C2E5D2040202FBD20180C6D20080C0D2F0
:100196000280BCD2D580BAD20580B47F201200E995
:1001A6002002077401B5090040F11200A6FF1200F3
:1001B600E9020123D208D20680951200A6FB12009E
:1001C600A6FA1200A6F94A4B700679CC7A037BFF91
:1001D60020022EE509602A7E008E827583001205B4
:1001E600A760060EEE650A70F0C2D5EBC0E0EAC065
:1001F600E0E9C0E0EE120342D0E0F9D0E0FAD0E048
:10020600FB120501FF60AAEBC0E0EAC0E0E9C0E02E
:100216001200E9D0E02401F9D0E03400FAD0E0FB86
:10022600E50A0460DCD50AD980877BFF7A03793E2C
:10023600D202809C791080027908C206C208800822
:10024600D2D5790A8004790AC2D5E50A047002F586
:100256000AE4FAFDFEFF1200A6FC7B082001131239
:1002660000A6FD7B1030000A1200A6FE1200A6FFB3
:100276007B20EC3382D592D55013C3E43000069F21
:10028600FFE49EFEE42001039DFDE49CFCE4CBF824
:10029600C201EC700CCFCECDCCE824F8F870F38018
:1002A60017C3EF33FFEE33FEED33FDEC33FCEB33D8
:1002B600FB994002FB0FD8E9EB300105F8D0E0C40A
:1002C60048B201C0E00AEC4D4E4F78207B0070C268
:1002D600EAB50A0040BCC0E0120344D0F0D0E020EA
:1002E6000104C4C0E0C4B201C0F01200D2D0F0D5FF
:1002F600F0EB02012312060601C053023A5801919F
:100306004C018D42023E4F02464402464901A64335
:08031600024C55023046023092
:10031E004502304703EC5001952D01992E01BC2B5F
:10032E00019D2301BA2003D52A015548000001B4CE
:10033E003F3F3F00790AA2D5200314300509B910BA
:10034E00020404B9080104A2D520060250010420BB
:10035E0002689202B509005034C0E07F20300319C4
:10036E007F30A20272067205500F12039BC202C2A8
:10037E0006C205C2087F30800F300503E9C0E012C7
:10038E0000E9300503D0E0F9D0E0B509CC3005170F
:10039E007F30B9100C1200E97F583004077F788047
:1003AE0003B908031200E93002057F2D0200E97F30
:1003BE00202008F87F2B2006F322920280CF286E91
:1003CE00756C6C2900D2011200A63001F8C20178BA
:1003DE000930D50108F60201552D50434958120037
:1003EE00A62403B405004001E49003E7931200DA5B
:0D03FE00743A1200DAD20375090402023AC3
:1005A700BB010CE58229F582E5833AF583E0225009
:1005B70006E92582F8E622BBFE06E92582F8E22253
:0D05C700E58229F582E5833AF583E493226D
:1005D400BB010689828A83F0225002F722BBFE0106
:0205E400F32200
:1005E600F8E0FBA3A3E0F925F0F0E582158270029E
:0705F6001583E0FA38F02242
:0905FD00EBF0A3EAF0A3E9F022FF
:10060600D083D082F8E4937012740193700DA3A383
:1006160093F8740193F5828883E473740293686097
:06062600EFA3A3A380DF97
:00000001FF
