:0300000002116486
:0C116400787FE4F6D8FD7581210211AB04
:1016E50043BC807F0A7E0012166B53DEFC43DE0C82
:0A16F50053BCDF53A8DF43DE2022C0
:10162A00E4FDFC53BCF0EF444042BCE5BC30E5FBB2
:10163A0053BCDF53BCBFAFBDEFADBEFCEDAE04FF84
:01164A00227D
:0D000E00E4F5C7F5C5F5C675C380F5C4223D
:1016AA0075C78075F50C75C5038FC4EEF5C375C68D
:0E16BA005A75C6A57F0A7E0012166B02000E3E
:1016080075C78075F50C75C5028FC4EEF5C3AF05B7
:101618008FC275C65A75C6A57F0A7E0012166B0260
:02162800000EB2
:10164B0075C78075F50C75C5018FC4EEF5C375C6EE
:10165B005A75C6A57F0A7E0012166BAFC202000E2A
:1014350075940A759370E4F592F59190FE1174FB1D
:10144500F07596CCE4F59575B202F5B190FE13747E
:10145500F8F075B41EE4F5B3A37481F0E4F5CAF5AC
:10146500C9A37413F075CC10E4F5CBA374AEF0E406
:09147500F5E2F5E1A3741FF02279
:10168B003D3D3D3D3D3D3D3D20636F6465207374A5
:0F169B00617274203D3D3D3D3D3D3D3D0D0A00DA
:1013DE0043BA80E490020CF0900261F0900268F043
:1013EE00900284F090023704F01214351216E512B2
:1013FE0017441200061200871214C512171712177F
:10140E006D12172E1216FF121780D2AF1215477BD0
:10141E00FF7A16798B120508120EA8900284E0B49A
:07142E0001F612009E80F19F
:1014C50043BA8090FEB6E0F090FEEDE4F090FEEABF
:1014D5007470F0A3F090FEED7411F090FEF27404B8
:1014E500F0A37451F090FEF0E4F0A37431F090FE97
:1014F500B5E04450F090FEFD7480F090FEE0E044CD
:0315050001F022D0
:05000600D288D2A822FF
:10176D00438E805389F0758ACD758CD4C28DD28C01
:03177D00D2A922CC
:0A008700538EBF53890F43891022E6
:1017800053D1FDE4F5D575D4DC43D10843AF202215
:1016FF0053A23F759850438E01438E0475D7E875FA
:08170F00D6FF438E10D2AC227C
:10172E0075841043844043D12075D3E875D2FF43AE
:06173E00D18043AF102230
:100C4E005468652076616C7565206F6620737469D3
:100C5E00725F72756E5F74696D65206973202564AD
:100C6E00200D0A005468652076616C7565206F66EC
:100C7E0020737469725F73746F705F74696D652031
:100C8E006973202564200D0A005468652076616C16
:100C9E007565206F66206369725F72756E5F746929
:100CAE006D65206973202564200D0A005468652047
:100CBE0076616C7565206F66206369725F73746F01
:100CCE00705F74696D65206973202564200D0A00BC
:100CDE005468652076616C7565206F662074656D4D
:100CEE00705F616C61726D5F76616C7565312069E4
:100CFE0073202564200D0A005468652076616C759A
:100D0E0065206F662074656D705F616C61726D5FDA
:100D1E0076616C756532206973202564200D0A009A
:100D2E005468652076616C7565206F662074656DFC
:100D3E00705F616C61726D5F76616C756533206991
:100D4E0073202564200D0A005468652076616C7549
:100D5E0065206F66206C6576656C5F64656C617985
:0F0D6E005F74696D65206973202564200D0A008C
:101547007F207E0012164BEFB4FF309002607403C9
:10155700F0E4900271F0A3F0A3F0900262740AF035
:10156700A3F0900269F0A3F090020B743CF0900195
:0E1577000A745AF0A3F0A3F0120AC00210B5D5
:100AC000E4FFFE1216AA900260E0900270F0FDE4CE
:100AD000FFFE121608900271E0FD7F017E001216E3
:100AE00008900262E0900274F0900263E090027558
:100AF000F0900269E0900276F090026AE09002774E
:100B0000F0900272E0FD7F037E00121608900274DE
:100B1000E0FD7F047E00121608900275E0FD7F055F
:100B20007E00121608900276E0FD7F067E00121607
:100B300008900276E0FD7F077E001216089002778B
:100B4000E0FD7F087E0012160890020BE09002780C
:100B5000F0FD7F097E0012160890010AE090027AEB
:100B6000F090010BE090027BF090010CE090027C91
:100B7000F090027AE0FD7F0A7E0012160890027B58
:100B8000E0FD7F0B7E0012160890027CE0FD7F0CDA
:100B90007E001216087D587F207E001216087BFF0B
:100BA0007A0C794E900274E0FF90023BE4F0A3EFE0
:100BB000F01205087BFF7A0C7972900275E0FF90C5
:100BC000023BE4F0A3EFF01205087BFF7A0C799763
:100BD000900276E0FF90023BE4F0A3EFF0120508EC
:100BE0007BFF7A0C79BA900277E0FF90023BE4F049
:100BF000A3EFF01205087BFF7A0C79DE90027AE011
:100C0000FF90023BE4F0A3EFF01205087BFF7A0DA2
:100C1000790690027BE0FF90023BE4F0A3EFF01234
:100C200005087BFF7A0D792E90027CE0FF90023B55
:100C3000E4F0A3EFF01205087BFF7A0D79569002DD
:0E0C400078E0FF90023BE4F0A3EFF00205081D
:1010B500E4FFFE12164B900270EFF01217907F01BD
:1010C5007E0012164B900271EFF01217597F037EC6
:1010D5000012164B900272EFF01215857F067E0006
:1010E50012164B900272EFF0A3E0FF1215B37F04C6
:1010F5007E0012164B900274EFF0900262F07F05AD
:101105007E0012164B900275EFF0900263F07F0798
:101115007E0012164B900276EFF0900269F07F0880
:101125007E0012164B900277EFF090026AF07F0A6C
:101135007E0012164B90027AEFF090010AF07F0BB9
:101145007E0012164B90027BEFF090010BF07F0CA6
:0F1155007E0012164B90027CEFF090010CF022FE
:100FB00060FC010F03D503FA04200446046D049578
:100FC00004BE04E70510053A0565059005BB05E775
:100FD0000613063F066C069906C606F30720074D62
:100FE000077A07A707D40800082D0859088508B113
:100FF00008DC09070931095B098409AD09D609FD37
:101000000A240A4B0A710A960ABB0ADE0B020B2459
:101010000B460B670B870BA70BC60BE40C020C1ED1
:101020000C3A0C560C700C8A0CA40CBC0CD40CECB6
:101030000D020D190D2E0D430D570D6B0D7E0D90EC
:101040000DA20DB40DC50DD50DE50DF50E040E1256
:101050000E200E2E0E3B0E480E550E610E6D0E78B4
:101060000E830E8D0E970EA10EAB0EB40EBD0EC6E6
:101070000ECF0ED70EDF0EE70EEF0EF60EFD0F04AD
:101080000F0B0F110F170F1D0F230F290F2F0F35E8
:101090000F3A0F3F0F440F490F4E0F530F580F5C7D
:1010A0000F600F650F690F6D0F710F740F780F7C54
:0E11F00090023CEBF0A3EAF0A3E9F0A3EDF0CF
:1011FE00E4900243F0A3F0900242F090023FE0141C
:10120E00FF900242E0FEC39F505A90023CE0FBA3C7
:10121E00E0FAA3E0F975F002EEA4F58285F08312F0
:10122E000DD2FF900240E0FCA3E0FDC39FEC95F0D1
:10123E00402AA3E02401FFE433FEEF25E0FFEE3366
:10124E00FE8F828E83120DD2FFC3ED9FEC95F05070
:10125E000B900242E0FFA3E4F0A3EFF0900242E015
:0C126E0004F08097900243E0FEA3E0FF34
:01127A002251
:05002600900238EFF02C
:10002B00E490023AF0A3F0900239F0900238E0FF2E
:10003B0012162A90023BE02FF090023AE03EF0902D
:10004B000239E004F0E0C3940A40E090023AE0FE8B
:10005B00A3E0FF7C007D0A120D7D90023AEEF0A327
:10006B00EFF07B017A01790F90023AE0FFA3E09069
:0C007B000240CFF0A3EFF07D7E0211F0F8
:10174400E490028AF090028704F0A3F0A3F0D2C3DD
:05175400D2C2D2C12247
:030003000216C81A
:1016C800C0E0C083C082758BDC758DFF90028A7480
:0D16D80001F0D28ED2ABD082D083D0E032B0
:03001B0002147E4E
:10147E00C0E0C083C082C0D090028AE064017024B4
:10148E00F0900287E0B40102C2C1900288E0B4017C
:10149E0002C2C2900289E0B40102C2C3758BF77515
:1014AE008DFF800AD2C3D2C2D2C1C28EC2ABD0D0FF
:0714BE00D082D083D0E032A0
:10158500EFB40127C2A6900262E075F064A4FF9053
:101595000264E5F0F0A3EFF0900263E075F064A457
:0E15A500FF900266E5F0F0A3EFF022D2A6223E
:1015B300EFB40127D2A7900269E075F064A4FF900D
:1015C300026BE5F0F0A3EFF090026AE075F064A41B
:0E15D300FF90026DE5F0F0A3EFF022C2A72218
:10171700E4900001F0900082F0900102F0F0A3F055
:07172700A3F0A3F0A3F022E0
:0300930002130550
:10130500C0E0C083C082C0D075D000C007E584307E
:10131500E1285384FD900102E0601AA3E0FF04F088
:1013250074022FF582E43400F583E0F5859001021F
:10133500E014F08005900103E4F0E58430E03353D8
:1013450084FE900001E07021900106E0D394804076
:1013550002E4F0900106E02482F582E43400F5838E
:10136500E585F0900106E004F0900104E4F0A37433
:0D13750032F0D007D0D0D082D083D0E0324B
:03000B00021508D3
:10150800C0E0C083C082C0D0900104E07002A3E0B4
:101518006024900105E024FFF0900104E034FFF01E
:10152800E07002A3E0700F900106E0D3940040063B
:0F1538009000017401F0D0D0D082D083D0E03287
:030023000215E1E2
:1015E100C0E0C0D0A299E43355986007A299B3E452
:1015F100335298A298E43355986007A298B3E43324
:071601005298D0D0D0E03276
:0817A0008F993099FDC29922D6
:10175900EF90FEF9B401087404F0A37451F022E487
:04176900F0A3F022D7
:10179000EF75F0B8A4FF90FEFBE5F0F0A3EFF022A8
:10166B00D3EF9400EE9400401600000075080B7544
:0F167B0009BED509FDD508FAEF1F70E41E80E106
:01168A00223D
:100EA800900001E064016003020FAFF0900106F0CA
:100EB800900082E064516003020FAFA3E024EB606E
:100EC800361460472476B409004003020FAF900E31
:100ED800E475F003A4C58325F0C58373020F1B02D4
:100EE8000F24020F2C020F42020F50020F5C020F58
:100EF80068020F82020FA49000027451F0A37415C7
:100F0800F09001027402F0438402221213829002CC
:100F180084801B900084E024FF92A822900084E043
:100F2800FF021759900084E0B4010790023774015A
:100F3800F022E4900237F0D2FD22900084E0FF9086
:100F48000260F0121790805C900084E0FF900261CC
:100F5800F0021585900084E0FF900268F00215B356
:100F6800900084E090010AF0900085E090010BF079
:100F7800900086E090010CF0802A900084E09002B6
:100F880062F0900085E0900263F0900086E09002A5
:100F980069F0900087E090026AF08008900084E091
:080FA80090020BF0120AC022B6
:10127B009000027451F0A37417F0900107E09000F6
:10128B0004F0900108E0900005F0900109E0900057
:10129B0006F090020FE0900007F0900210E0900033
:1012AB0008F0900211E0900009F0900212E090001B
:1012BB000AF0900213E090000BF0900214E0900003
:1012CB000CF0900215E090000DF0900216E09000EB
:1012DB000EF0900217E090000FF0900218E09000D3
:1012EB0010F030FC05E4A3F080069000117401F0BF
:0A12FB009001027410F043840222F7
:101382009000027451F0A37416F0900260E0900095
:1013920004F0900262E0900005F0900263E0900099
:1013A20006F0900269E0900007F090026AE0900077
:1013B20008F090010AE0900009F090010BE0900023
:1013C2000AF090010CE090000BF090020BE090000C
:0C13D2000CF0900102740BF04384022226
:0410B00041028B006E
:10009E0090020CE06401600302049C7F0C120026A7
:1000AE00900107EFF090010AE0FEEFC39E4007E4D7
:1000BE00900287F080069002877401F07F0D120087
:1000CE0026900108EFF090010BE0FEEFC39E400773
:1000DE00E4900288F080069002887401F07F0E1280
:1000EE000026900109EFF090010CE0FEEFC39E4058
:1000FE0007E4900289F080069002897401F0900264
:10010E0037E06401707B90020FE064047032A3E06C
:10011E006404702CA3E064047026A3E064047020D1
:10012E00A3E06404701AA3E0B40415A3E0B40410B1
:10013E00A3E0B4040BA3E0B40406A3E064046002DD
:10014E00D2FD90020FE064046035A3E06404602FDA
:10015E00A3E064046029A3E064046023A3E06404C4
:10016E00601DA3E064046017A3E064046011A3E0C3
:10017E006404600BA3E064046005A3E0B40402C24F
:10018E00FD30C00A30ED0790020F7403800B30C0B3
:10019E001620ED1390020F7402F0E4900219F09005
:1001AE000223F0A3F0802720C02420ED2190021915
:1001BE00E0701B90020F04F0900219F090020BE019
:1001CE0075F064A4FF900223E5F0F0A3EFF030EF9A
:1001DE000A30B3079002107403800B30EF1620B371
:1001EE00139002107402F0E490021AF0900225F0BF
:1001FE00A3F0802720EF2420B32190021AE0701B79
:10020E0090021004F090021AF090020BE075F06468
:10021E00A4FF900225E5F0F0A3EFF030B40A30C849
:10022E00079002117403800B30B41620C81390028D
:10023E00117402F0E490021BF0900227F0A3F080FC
:10024E002720B42420C82190021BE0701B900211BD
:10025E0004F090021BF090020BE075F064A4FF9086
:10026E000227E5F0F0A3EFF030C90A30B50790028F
:10027E00127403800B30C91620B51390021274024B
:10028E00F0E490021CF0900229F0A3F0802720C920
:10029E002420B52190021CE0701B90021204F090F5
:1002AE00021CF090020BE075F064A4FF900229E5A9
:1002BE00F0F0A3EFF030B60A30B7079002137403D4
:1002CE00800B30B61620B7139002137402F0E49030
:1002DE00021DF090022BF0A3F0802720B62420B749
:1002EE002190021DE0701B90021304F090021DF08D
:1002FE0090020BE075F064A4FF90022BE5F0F0A3E2
:10030E00EFF030F80A30F9079002147403800B30C6
:10031E00F81620F9139002147402F0E490021EF005
:10032E0090022DF0A3F0802720F82420F9219002CE
:10033E001EE0701B90021404F090021EF090020B4F
:10034E00E075F064A4FF90022DE5F0F0A3EFF0301D
:10035E00FA0A30FB079002157403800B30FA162050
:10036E00FB139002157402F0E490021FF090022F1E
:10037E00F0A3F0802720FA2420FB2190021FE070CA
:10038E001B90021504F090021FF090020BE075F026
:10039E0064A4FF90022FE5F0F0A3EFF030910A3045
:1003AE00C7079002167403800B30911620C7139066
:1003BE0002167402F0E4900220F0900231F0A3F0E5
:1003CE00802720912420C721900220E0701B9002EC
:1003DE001604F0900220F090020BE075F064A4FF7A
:1003EE00900231E5F0F0A3EFF030900A30960790CE
:1003FE0002177403800B3090162096139002177418
:10040E0002F0E4900221F0900233F0A3F080272056
:10041E009024209621900221E0701B90021704F088
:10042E00900221F090020BE075F064A4FF9002336D
:10043E00E5F0F0A3EFF030EB29309726900222E0A2
:10044E0070209002187403F09002227401F0900252
:10045E000BE075F064A4FF900235E5F0F0A3EFF029
:10046E00802430EB0A2097079002187402800B202C
:10047E00EB142097119002187401F0E4900222F010
:0F048E00900235F0A3F012127BE490020CF022E2
:03009B0002080256
:0F080200C0E0C0F0C083C082C0D075D000C00776
:1008110090020CE0701090028BE004F0E0B46406EA
:1008210090020C7401F0900219E0B40125900223AA
:10083100E07002A3E0601B900224E024FFF090022C
:1008410023E034FFF0E07002A3E0700690020F7421
:1008510004F090021AE0B40125900225E07002A391
:10086100E0601B900226E024FFF0900225E034FFB7
:10087100F0E07002A3E070069002107404F09002A0
:100881001BE0B40125900227E07002A3E0601B90F9
:100891000228E024FFF0900227E034FFF0E070022C
:1008A100A3E070069002117404F090021CE0B40100
:1008B10025900229E07002A3E0601B90022AE02447
:1008C100FFF0900229E034FFF0E07002A3E070062F
:1008D1009002127404F090021DE0B4012590022BE5
:1008E100E07002A3E0601B90022CE024FFF0900274
:1008F1002BE034FFF0E07002A3E070069002137465
:1009010004F090021EE0B4012590022DE07002A3D4
:10091100E0601B90022EE024FFF090022DE034FFF6
:10092100F0E07002A3E070069002147404F09002EB
:100931001FE0B4012590022FE07002A3E0601B903C
:100941000230E024FFF090022FE034FFF0E070026B
:10095100A3E070069002157404F0900220E0B40147
:1009610025900231E07002A3E0601B900232E02486
:10097100FFF0900231E034FFF0E07002A3E0700676
:100981009002167404F0900221E0B4012590023324
:10099100E07002A3E0601B900234E024FFF09002BB
:1009A10033E034FFF0E07002A3E0700690021774A8
:1009B10004F0900222E0B40125900235E07002A318
:1009C100E0601B900236E024FFF0900235E034FF36
:1009D100F0E07002A3E070069002187404F0900237
:1009E10061E06401706220A62A900264E07002A3B3
:1009F100E06020900265E024FFF0900264E034FFA3
:100A0100F0900263E075F064A4FF900266E5F0F0F7
:100A1100A3EFF0900264E07002A3E0702BD2A690E5
:100A21000267E024FFF0900266E034FFF0E070021C
:100A3100A3E07014C2A6900262E075F064A4FF9076
:100A41000264E5F0F0A3EFF0900268E064017062E7
:100A510030A72A90026BE07002A3E0602090026C44
:100A6100E024FFF090026BE034FFF090026AE07541
:100A7100F064A4FF90026DE5F0F0A3EFF090026B3B
:100A8100E07002A3E0702BC2A790026EE024FFF099
:100A910090026DE034FFF0E07002A3E07014D2A781
:100AA100900269E075F064A4FF90026BE5F0F0A399
:020AB100EFF064
:0D0AB300D007D0D0D082D083D0F0D0E03278
:101170000213DEE493A3F8E493A34003F68001F2A4
:1011800008DFF48029E493A3F85407240CC8C33380
:10119000C4540F4420C8834004F456800146F6DF4F
:1011A000E4800B0102040810204080900FB0E47E20
:1011B000019360BCA3FF543F30E509541FFEE49344
:1011C000A360010ECF54C025E060A840B8E493A30B
:1011D000FAE493A3F8E493A3C8C582C8CAC583CA36
:1011E000F0A3C8C582C8CAC583CADFE9DEE780BEEE
:0110B400003B
:100D7D00BC000BBE0029EF8DF084FFADF022E4CC5A
:100D8D00F875F008EF2FFFEE33FEEC33FCEE9DEC23
:100D9D00984005FCEE9DFE0FD5F0E9E4CEFD22ED69
:100DAD00F8F5F0EE8420D21CFEADF075F008EF2FB3
:100DBD00FFED33FD4007985006D5F0F222C398FDA4
:050DCD000FD5F0EA2241
:100DD200BB0110E58229F582E5833AF583E0F5F05F
:100DE200A3E0225009E92582F886F008E622BBFE3C
:100DF2000AE92582F8E2F5F008E222E5832AF58382
:080E0200E993F5F0A3E9932246
:10049D00E508243BF582E43402F583E0050822905B
:1004AD00023830070390023BE475F001120E620230
:1004BD000E0A2000E97F2ED2008018EF540F2490F1
:1004CD00D43440D4FF30040BEF24BFB41A005003D2
:1004DD002461FFE50960021509050CE50C700205A4
:1004ED000B30070E900238E475F001120E62EF0228
:1004FD000E500217A07403D2078003E4C207F5085B
:10050D00900238120E79E4F509F50BF50CE509604A
:10051D00077F201204E080F5750AFFC201C200C2F8
:10052D0002C203C205C206C2081204ACFF700D3030
:10053D0007057F001204F1AF0CAE0B22B4255FC28C
:10054D00D5C2041204ACFF24D0B40A00501A75F0C1
:10055D000A780930D50508B6FF0106C6A426F6208F
:10056D00D5047002D20380D924CFB41A00EF500401
:10057D00C2E5D2040206F2D20180C6D20080C0D2FA
:10058D000280BCD2D580BAD20580B47F201204E09F
:10059D002002077401B5090040F112049DFF1204F9
:1005AD00E002051AD208D206809512049DFB1204B2
:1005BD009DFA12049DF94A4B700679C37A077BFFA9
:1005CD0020022EE509602A7E008E82758300120EB0
:1005DD002360060EEE650A70F0C2D5EBC0E0EAC0EE
:1005ED00E0E9C0E0EE120739D0E0F9D0E0FAD0E052
:1005FD00FB120E0AFF60AAEBC0E0EAC0E0E9C0E022
:10060D001204E0D0E02401F9D0E03400FAD0E0FB90
:10061D00E50A0460DCD50AD980877BFF7A07793536
:10062D00D202809C791080027908C206C208800827
:10063D00D2D5790A8004790AC2D5E50A047002F58B
:10064D000AE4FAFDFEFF12049DFC7B082001131243
:10065D00049DFD7B1030000A12049DFE12049DFFC7
:10066D007B20EC3382D592D55013C3E43000069F26
:10067D00FFE49EFEE42001039DFDE49CFCE4CBF829
:10068D00C201EC700CCFCECDCCE824F8F870F3801D
:10069D0017C3EF33FFEE33FEED33FDEC33FCEB33DD
:1006AD00FB994002FB0FD8E9EB300105F8D0E0C40F
:1006BD0048B201C0E00AEC4D4E4F78207B0070C26D
:1006CD00EAB50A0040BCC0E012073BD0F0D0E020F4
:1006DD000104C4C0E0C4B201C0F01204C9D0F0D509
:1006ED00F0EB02051A120E8205B753063158058834
:1006FD004C05844206354F063D44063D49059D4354
:08070D000643550627460627A6
:100715004506274707E350058C2D05902E05B32B7D
:1007250005942305B12007CC2A054C48000005ABEC
:100735003F3F3F00790AA2D5200314300509B910BF
:10074500020404B9080104A2D520060250010420C0
:1007550002689202B509005034C0E07F20300319C9
:100765007F30A20272067205500F120792C202C2B2
:1007750006C205C2087F30800F300503E9C0E012CC
:1007850004E0300503D0E0F9D0E0B509CC30051719
:100795007F30B9100C1204E07F583004077F788051
:1007A50003B908031204E03002057F2D0204E07F3F
:1007B500202008F87F2B2006F322920280CF286E96
:1007C500756C6C2900D20112049D3001F8C20178C4
:1007D5000930D50108F602054C2D5043495812043D
:1007E5009D2403B405004001E49007DE931204D173
:0D07F500743A1204D1D203750904020631D2
:100E0A00BB010689828A83E0225002E722BBFE02E6
:090E1A00E32289828A83E4932219
:100E2300BB010CE58229F582E5833AF583E0225084
:100E330006E92582F8E622BBFE06E92582F8E222CE
:0D0E4300E58229F582E5833AF583E49322E8
:100E5000BB010689828A83F0225002F722BBFE0181
:020E6000F3227B
:100E6200F8E0FBA3A3E0F925F0F0E5821582700219
:070E72001583E0FA38F022BD
:090E7900EBF0A3EAF0A3E9F0227A
:100E8200D083D082F8E4937012740193700DA3A3FF
:100E920093F8740193F5828883E473740293686013
:060EA200EFA3A3A380DF13
:00000001FF
