:03000000021135B5
:0C113500787FE4F6D8FD75812102117C62
:1016A80043BC807F0A7E0012162E53DEFC43DE0CFC
:0A16B80053BCDF53A8DF43DE2022FD
:1015ED00E4FDFC53BCF0EF444042BCE5BC30E5FBF0
:1015FD0053BCDF53BCBFAFBDEFADBEFCEDAE04FFC2
:01160D0022BA
:0D000E00E4F5C7F5C5F5C675C380F5C4223D
:10166D0075C78075F50C75C5038FC4EEF5C375C6CA
:0E167D005A75C6A57F0A7E0012162E02000EB8
:1015CB0075C78075F50C75C5028FC4EEF5C3AF05F5
:1015DB008FC275C65A75C6A57F0A7E0012162E02DB
:0215EB00000EF0
:10160E0075C78075F50C75C5018FC4EEF5C375C62B
:10161E005A75C6A57F0A7E0012162EAFC202000EA4
:1013AF0075940A759370E4F592F59190FE1174FBA4
:1013BF00F07596CCE4F59575B202F5B190FE137405
:1013CF00F8F075B41EE4F5B3A37481F075CA01E4A7
:1013DF00F5C9A37413F075CC10E4F5CBA374AEF07C
:0B13EF0075E260E4F5E1A3741FF0223A
:10164E003D3D3D3D3D3D3D3D20636F6465207374E2
:0F165E00617274203D3D3D3D3D3D3D3D0D0A0017
:1013FA0043BA80E490020CF0900260F0900267F029
:10140A001213AF1216A8121707120006120087123B
:10141A0014881216DA1217301216F11216C212179F
:10142A0043D2AF12150A7BFF7A16794E1204EB12D9
:07143A000F9012009E80F8E4
:1014880043BA8090FEB6E0F090FEEDE4F090FEEAFC
:101498007470F0A3F090FEED7411F090FEF27404F5
:1014A800F0A37451F090FEF0E4F0A37431F090FED4
:1014B800B5E04450F090FEFD7480F090FEE0E0440A
:0314C80001F0220E
:05000600D288D2A822FF
:10173000438E805389F0758ACD758CD4C28DD28C3E
:03174000D2A92209
:0A008700538EBF53890F43891022E6
:1017430053D1FDE4F5D575D4DC43D10843AF202252
:1016C20053A23F759850438E01438E0475D7E87537
:0816D200D6FF438E10D2AC22BA
:1016F10075841043844043D12075D3E875D2FF43EC
:06170100D18043AF10226D
:100C31005468652076616C7565206F6620737469F0
:100C4100725F72756E5F74696D65206973202564CA
:100C5100200D0A005468652076616C7565206F6609
:100C610020737469725F73746F705F74696D65204E
:100C71006973202564200D0A005468652076616C33
:100C81007565206F66206369725F72756E5F746946
:100C91006D65206973202564200D0A005468652064
:100CA10076616C7565206F66206369725F73746F1E
:100CB100705F74696D65206973202564200D0A00D9
:100CC1005468652076616C7565206F662074656D6A
:100CD100705F616C61726D5F76616C756531206901
:100CE10073202564200D0A005468652076616C75B7
:100CF10065206F662074656D705F616C61726D5FF8
:100D010076616C756532206973202564200D0A00B7
:100D11005468652076616C7565206F662074656D19
:100D2100705F616C61726D5F76616C7565332069AE
:100D310073202564200D0A005468652076616C7566
:100D410065206F66206C6576656C5F64656C6179A2
:0F0D51005F74696D65206973202564200D0A00A9
:10150A007F207E0012160EEFB4FF3090025F740344
:10151A00F0E4900270F0A3F0A3F0900261740AF074
:10152A00A3F0900268F0A3F090020B743CF09001D3
:0E153A000A745AF0A3F0A3F0120AA30210865E
:100AA300E4FFFE12166D90025FE090026FF0FDE42A
:100AB300FFFE1215CB900270E0FD7F017E00121540
:100AC300CB900261E0900273F0900262E0900274B6
:100AD300F0900268E0900275F0900269E09002766F
:100AE300F0900271E0FD7F037E001215CB9002733C
:100AF300E0FD7F047E001215CB900274E0FD7F05BC
:100B03007E001215CB900275E0FD7F067E00121564
:100B1300CB900275E0FD7F077E001215CB90027625
:100B2300E0FD7F087E001215CB90020BE090027768
:100B3300F0FD7F097E001215CB90010AE090027947
:100B4300F090010BE090027AF090010CE090027BB0
:100B5300F0900279E0FD7F0A7E001215CB90027AB5
:100B6300E0FD7F0B7E001215CB90027BE0FD7F0C36
:100B73007E001215CB7D587F207E001215CB7BFFA4
:100B83007A0C7931900273E0FF90023AE4F0A3EF1C
:100B9300F01204EB7BFF7A0C7955900274E0FF901E
:100BA300023AE4F0A3EFF01204EB7BFF7A0C797ABC
:100BB300900275E0FF90023AE4F0A3EFF01204EB29
:100BC3007BFF7A0C799D900276E0FF90023AE4F085
:100BD300A3EFF01204EB7BFF7A0C79C1900279E06A
:100BE300FF90023AE4F0A3EFF01204EB7BFF7A0CE0
:100BF30079E990027AE0FF90023AE4F0A3EFF01271
:100C030004EB7BFF7A0D791190027BE0FF90023AAF
:100C1300E4F0A3EFF01204EB7BFF7A0D7939900235
:0E0C230077E0FF90023AE4F0A3EFF00204EB5A
:10108600E4FFFE12160E90026FEFF01217537F0167
:101096007E0012160E900270EFF012171C7F037E70
:1010A6000012160E900271EFF01215487F067E00B0
:1010B60012160E900271EFF0A3E0FF1215767F0470
:1010C6007E0012160E900273EFF0900261F07F051B
:1010D6007E0012160E900274EFF0900262F07F0707
:1010E6007E0012160E900275EFF0900268F07F08EF
:1010F6007E0012160E900276EFF0900269F07F0ADB
:101106007E0012160E900279EFF090010AF07F0B26
:101116007E0012160E90027AEFF090010BF07F0C13
:0F1126007E0012160E90027BEFF090010CF0226B
:100E8B0060FC010F03D503FA04200446046D04959E
:100E9B0004BE04E70510053A0565059005BB05E79B
:100EAB000613063F066C069906C606F30720074D88
:100EBB00077A07A707D40800082D0859088508B139
:100ECB0008DC09070931095B098409AD09D609FD5D
:100EDB000A240A4B0A710A960ABB0ADE0B020B2480
:100EEB000B460B670B870BA70BC60BE40C020C1EF8
:100EFB000C3A0C560C700C8A0CA40CBC0CD40CECDD
:100F0B000D020D190D2E0D430D570D6B0D7E0D9012
:100F1B000DA20DB40DC50DD50DE50DF50E040E127C
:100F2B000E200E2E0E3B0E480E550E610E6D0E78DA
:100F3B000E830E8D0E970EA10EAB0EB40EBD0EC60C
:100F4B000ECF0ED70EDF0EE70EEF0EF60EFD0F04D3
:100F5B000F0B0F110F170F1D0F230F290F2F0F350E
:100F6B000F3A0F3F0F440F490F4E0F530F580F5CA3
:100F7B000F600F650F690F6D0F710F740F780F7C7A
:0E11C10090023BEBF0A3EAF0A3E9F0A3EDF0FF
:1011CF00E4900242F0A3F0900241F090023EE0144E
:1011DF00FF900241E0FEC39F505A90023BE0FBA3F9
:1011EF00E0FAA3E0F975F002EEA4F58285F0831220
:1011FF000DB5FF90023FE0FCA3E0FDC39FEC95F01F
:10120F00402AA3E02401FFE433FEEF25E0FFEE3395
:10121F00FE8F828E83120DB5FFC3ED9FEC95F050BC
:10122F000B900241E0FFA3E4F0A3EFF0900241E046
:0C123F0004F08097900242E0FEA3E0FF64
:01124B002280
:05002600900237EFF02D
:10002B00E4900239F0A3F0900238F0900237E0FF31
:10003B001215ED90023AE02FF0900239E03EF0906D
:10004B000238E004F0E0C3940A40E0900239E0FE8D
:10005B00A3E0FF7C007D0A120D60900239EEF0A345
:10006B00EFF07B017A01790F900239E0FFA3E0906A
:0C007B00023FCFF0A3EFF07D7E0211C128
:10170700E4900288F090028504F0A3F0A3F0D2C31E
:05171700D2C2D2C12284
:0300030002168B57
:10168B00C0E0C083C082758BDC758DFF90028874BF
:0D169B0001F0D28ED2ABD082D083D0E032ED
:03001B000214418B
:10144100C0E0C083C082C0D0900288E064017024F3
:10145100F0900285E0B40102C2C1900286E0B401BD
:1014610002C2C2900287E0B40102C2C3758BF77554
:101471008DFF800AD2C3D2C2D2C1C28EC2ABD0D03C
:07148100D082D083D0E032DD
:10154800EFB40127C2A6900261E075F064A4FF9091
:101558000263E5F0F0A3EFF0900262E075F064A496
:0E156800FF900265E5F0F0A3EFF022D2A6227C
:10157600EFB40127D2A7900268E075F064A4FF904B
:10158600026AE5F0F0A3EFF0900269E075F064A45A
:0E159600FF90026CE5F0F0A3EFF022C2A72256
:1016DA00E4900001F0900082F0900102F0F0A3F093
:0716EA00A3F0A3F0A3F0221E
:030093000212D680
:1012D600C0E0C083C082C0D075D000C007E58430AE
:1012E600E1285384FD900102E0601AA3E0FF04F0B8
:1012F60074022FF582E43400F583E0F5859001024F
:10130600E014F08005900103E4F0E58430E0335307
:1013160084FE900001E07021900106E0D3948040A5
:1013260002E4F0900106E02482F582E43400F583BD
:10133600E585F0900106E004F0900104E4F0A37462
:0D13460032F0D007D0D0D082D083D0E0327A
:03000B000214CB11
:1014CB00C0E0C083C082C0D0900104E07002A3E0F2
:1014DB006024900105E024FFF0900104E034FFF05C
:1014EB00E07002A3E0700F900106E0D39400400679
:0F14FB009000017401F0D0D0D082D083D0E032C5
:030023000215A41F
:1015A400C0E0C0D0A299E43355986007A299B3E48F
:1015B400335298A298E43355986007A298B3E43361
:0715C4005298D0D0D0E032B4
:081763008F993099FDC2992213
:10171C00EF90FEF9B401087404F0A37451F022E4C4
:04172C00F0A3F02214
:10175300EF75F0B8A4FF90FEFBE5F0F0A3EFF022E5
:10162E00D3EF9400EE9400401600000075080B7581
:0F163E0009BED509FDD508FAEF1F70E41E80E143
:01164D00227A
:100F9000900001E064016003021085F0900106F00A
:100FA000900082E064516003021085A3E024EB60AE
:100FB000361460472476B409004003021085900F70
:100FC000CC75F003A4C58325F0C58373020FFE0220
:100FD000100702100F021018021026021032021021
:100FE0003E02105802107A9000027451F0A374155A
:100FF000F09001027402F043840222021353900025
:1010000084E024FF92A822900084E0FF02171C9045
:101010000084E024FF92FD22900084E0FF90025FB4
:10102000F0121753805C900084E0FF900260F002A1
:101030001548900084E0FF900267F002157690005A
:1010400084E090010AF0900085E090010BF09000A0
:1010500086E090010CF0802A900084E0900261F01C
:10106000900085E0900262F0900086E0900268F0C7
:10107000900087E0900269F08008900084E0900280
:061080000BF0120AA3228E
:10124C009000027451F0A37417F0900107E0900025
:10125C0004F0900108E0900005F0900109E0900086
:10126C0006F090020FE0900007F0900210E0900062
:10127C0008F0900211E0900009F0900212E090004A
:10128C000AF0900213E090000BF0900214E0900032
:10129C000CF0900215E090000DF0900216E090001A
:1012AC000EF0900217E090000FF0900218E0900002
:1012BC0010F030FC05E4A3F080069000117401F0EE
:0A12CC009001027410F04384022226
:101353009000027451F0A37416F090025FE09000C5
:1013630004F0900261E0900005F0900262E09000CA
:1013730006F0900268E0900007F0900269E09000A8
:1013830008F090010AE0900009F090010BE0900052
:101393000AF090010CE090000BF090020BE090003B
:0C13A3000CF0900102740BF04384022255
:040F8B004102890096
:10009E0090020CE06401600302047F7F0C120026C4
:1000AE00900107EFF090010AE0FEEFC39E4007E4D7
:1000BE00900285F080069002857401F07F0D12008B
:1000CE0026900108EFF090010BE0FEEFC39E400773
:1000DE00E4900286F080069002867401F07F0E1284
:1000EE000026900109EFF090010CE0FEEFC39E4058
:1000FE0007E4900287F080069002877401F0A2EF69
:10010E00829482B682C982B682F882FA82918290F5
:10011E0082EBE43390020DF0E07005A304F0800B47
:10012E00E490020EF0900223F0A3F0309416309576
:10013E001390020F7403F0E4900219F0900223F072
:10014E00A3F0803A30941020950D90020F7402F0B7
:10015E00E4900219F0802720942420952190021912
:10016E00E0701B90020F04F0900219F090020BE069
:10017E0075F064A4FF900223E5F0F0A3EFF030EFEA
:10018E001630B3139002107403F0E490021AF0903C
:10019E000225F0A3F0803A30EF1020B30D9002103C
:1001AE007402F0E490021AF0802720EF2420B3218D
:1001BE0090021AE0701B90021004F090021AF09058
:1001CE00020BE075F064A4FF900225E5F0F0A3EFBA
:1001DE00F030B61630C8139002117403F0E490029A
:1001EE001BF0900227F0A3F0803A30B61020C80D15
:1001FE009002117402F0E490021BF0802720B624C6
:10020E0020C82190021BE0701B90021104F0900296
:10021E001BF090020BE075F064A4FF900227E5F04E
:10022E00F0A3EFF030C91630B5139002127403F03C
:10023E00E490021CF0900229F0A3F0803A30C9102D
:10024E0020B50D9002127402F0E490021CF080278B
:10025E0020C92420B52190021CE0701B90021204CC
:10026E00F090021CF090020BE075F064A4FF900277
:10027E0029E5F0F0A3EFF030B61630B71390021365
:10028E007403F0E490021DF090022BF0A3F0803A7C
:10029E0030B61020B70D9002137402F0E490021DD8
:1002AE00F0802720B62420B72190021DE0701B900D
:1002BE00021304F090021DF090020BE075F064A49E
:1002CE00FF90022BE5F0F0A3EFF030F81630F913A3
:1002DE009002147403F0E490021EF090022DF0A32D
:1002EE00F0803A30F81020F90D9002147402F0E408
:1002FE0090021EF0802720F82420F92190021EE0A3
:10030E00701B90021404F090021EF090020BE07528
:10031E00F064A4FF90022DE5F0F0A3EFF030FA1692
:10032E0030FB139002157403F0E490021FF090025C
:10033E002FF0A3F0803A30FA1020FB0D90021574C6
:10034E0002F0E490021FF0802720FA2420FB219077
:10035E00021FE0701B90021504F090021FF0900235
:10036E000BE075F064A4FF90022FE5F0F0A3EFF020
:10037E0030911630C7139002167403F0E4900220E9
:10038E00F0900231F0A3F0803A30911020C70D901A
:10039E0002167402F0E4900220F0802720912420AF
:1003AE00C721900220E0701B90021604F0900220EC
:1003BE00F090020BE075F064A4FF900231E5F0F0CE
:1003CE00A3EFF03090163096139002177403F0E4FA
:1003DE00900221F0900233F0A3F0803A309010207A
:1003EE00960D9002177402F0E4900221F0802720FF
:1003FE009024209621900221E0701B90021704F0A9
:10040E00900221F090020BE075F064A4FF9002338D
:10041E00E5F0F0A3EFF030EB16309713900218745E
:10042E0003F0E4900222F0900235F0A3F0803A300F
:10043E00EB1020970D9002187402F0E4900222F057
:10044E00802720EB24209721900222E0701B90023F
:10045E001804F0900222F090020BE075F064A4FFF5
:10046E00900235E5F0F0A3EFF012124CE490020C7E
:02047E00F0226A
:03009B000207E574
:0F07E500C0E0C0F0C083C082C0D075D000C00794
:1007F40090020CE07010900289E004F0E0B464060A
:1008040090020C7401F0900219E0B40125900223C7
:10081400E07002A3E0601B900224E024FFF0900249
:1008240023E034FFF0E07002A3E0700690020F743E
:1008340004F090021AE0B40125900225E07002A3AE
:10084400E0601B900226E024FFF0900225E034FFD4
:10085400F0E07002A3E070069002107404F09002BD
:100864001BE0B40125900227E07002A3E0601B9016
:100874000228E024FFF0900227E034FFF0E0700249
:10088400A3E070069002117404F090021CE0B4011D
:1008940025900229E07002A3E0601B90022AE02464
:1008A400FFF0900229E034FFF0E07002A3E070064C
:1008B4009002127404F090021DE0B4012590022B02
:1008C400E07002A3E0601B90022CE024FFF0900291
:1008D4002BE034FFF0E07002A3E070069002137482
:1008E40004F090021EE0B4012590022DE07002A3F2
:1008F400E0601B90022EE024FFF090022DE034FF14
:10090400F0E07002A3E070069002147404F0900208
:100914001FE0B4012590022FE07002A3E0601B9059
:100924000230E024FFF090022FE034FFF0E0700288
:10093400A3E070069002157404F0900220E0B40164
:1009440025900231E07002A3E0601B900232E024A3
:10095400FFF0900231E034FFF0E07002A3E0700693
:100964009002167404F0900221E0B4012590023341
:10097400E07002A3E0601B900234E024FFF09002D8
:1009840033E034FFF0E07002A3E0700690021774C5
:1009940004F0900222E0B40125900235E07002A335
:1009A400E0601B900236E024FFF0900235E034FF53
:1009B400F0E07002A3E070069002187404F0900254
:1009C40060E06401706220A62A900263E07002A3D2
:1009D400E06020900264E024FFF0900263E034FFC2
:1009E400F0900262E075F064A4FF900265E5F0F017
:1009F400A3EFF0900263E07002A3E0702BD2A69004
:100A04000266E024FFF0900265E034FFF0E070023B
:100A1400A3E07014C2A6900261E075F064A4FF9094
:100A24000263E5F0F0A3EFF0900267E06401706206
:100A340030A72A90026AE07002A3E0602090026B63
:100A4400E024FFF090026AE034FFF0900269E07560
:100A5400F064A4FF90026CE5F0F0A3EFF090026A5A
:100A6400E07002A3E0702BC2A790026DE024FFF0B7
:100A740090026CE034FFF0E07002A3E07014D2A79F
:100A8400900268E075F064A4FF90026AE5F0F0A3B8
:020A9400EFF081
:0D0A9600D007D0D0D082D083D0F0D0E03295
:101141000213FAE493A3F8E493A34003F68001F2B7
:1011510008DFF48029E493A3F85407240CC8C333AF
:10116100C4540F4420C8834004F456800146F6DF7E
:10117100E4800B0102040810204080900E8BE47E75
:10118100019360BCA3FF543F30E509541FFEE49373
:10119100A360010ECF54C025E060A840B8E493A33A
:1011A100FAE493A3F8E493A3C8C582C8CAC583CA65
:1011B100F0A3C8C582C8CAC583CADFE9DEE780BE1D
:010F8F000061
:100D6000BC000BBE0029EF8DF084FFADF022E4CC77
:100D7000F875F008EF2FFFEE33FEEC33FCEE9DEC40
:100D8000984005FCEE9DFE0FD5F0E9E4CEFD22ED86
:100D9000F8F5F0EE8420D21CFEADF075F008EF2FD0
:100DA000FFED33FD4007985006D5F0F222C398FDC1
:050DB0000FD5F0EA225E
:100DB500BB0110E58229F582E5833AF583E0F5F07C
:100DC500A3E0225009E92582F886F008E622BBFE59
:100DD5000AE92582F8E2F5F008E222E5832AF5839F
:080DE500E993F5F0A3E9932264
:10048000E508243AF582E43402F583E00508229079
:10049000023730070390023AE475F001120E45026C
:1004A0000DED2000E97F2ED2008018EF540F24902C
:1004B000D43440D4FF30040BEF24BFB41A005003EF
:1004C0002461FFE50960021509050CE50C700205C1
:1004D0000B30070E900237E475F001120E45EF0263
:1004E0000E330217637403D2078003E4C207F508D2
:1004F000900237120E5CE4F509F50BF50CE5096086
:10050000077F201204C380F5750AFFC201C200C232
:1005100002C203C205C206C20812048FFF700D306A
:1005200007057F001204D4AF0CAE0B22B4255FC2C6
:10053000D5C20412048FFF24D0B40A00501A75F0FB
:100540000A780930D50508B6FF0106C6A426F620AC
:10055000D5047002D20380D924CFB41A00EF50041E
:10056000C2E5D2040206D5D20180C6D20080C0D234
:100570000280BCD2D580BAD20580B47F201204C3D9
:100580002002077401B5090040F1120480FF120433
:10059000C30204FDD208D2068095120480FB120427
:1005A00080FA120480F94A4B700679A67A077BFF1D
:1005B00020022EE509602A7E008E82758300120ECD
:1005C0000660060EEE650A70F0C2D5EBC0E0EAC028
:1005D000E0E9C0E0EE12071CD0E0F9D0E0FAD0E08C
:1005E000FB120DEDFF60AAEBC0E0EAC0E0E9C0E05D
:1005F0001204C3D0E02401F9D0E03400FAD0E0FBCB
:10060000E50A0460DCD50AD980877BFF7A07791870
:10061000D202809C791080027908C206C208800844
:10062000D2D5790A8004790AC2D5E50A047002F5A8
:100630000AE4FAFDFEFF120480FC7B08200113127D
:100640000480FD7B1030000A120480FE120480FF3B
:100650007B20EC3382D592D55013C3E43000069F43
:10066000FFE49EFEE42001039DFDE49CFCE4CBF846
:10067000C201EC700CCFCECDCCE824F8F870F3803A
:1006800017C3EF33FFEE33FEED33FDEC33FCEB33FA
:10069000FB994002FB0FD8E9EB300105F8D0E0C42C
:1006A00048B201C0E00AEC4D4E4F78207B0070C28A
:1006B000EAB50A0040BCC0E012071ED0F0D0E0202E
:1006C0000104C4C0E0C4B201C0F01204ACD0F0D543
:1006D000F0EB0204FD120E65059A53061458056BE3
:1006E0004C05674206184F06204406204905804302
:0806F000062655060A46060A1B
:1006F80045060A4707C650056F2D05732E05962B2C
:1007080005772305942007AF2A052F480000058E9A
:100718003F3F3F00790AA2D5200314300509B910DC
:10072800020404B9080104A2D520060250010420DD
:1007380002689202B509005034C0E07F20300319E6
:100748007F30A20272067205500F120775C202C2EC
:1007580006C205C2087F30800F300503E9C0E012E9
:1007680004C3300503D0E0F9D0E0B509CC30051753
:100778007F30B9100C1204C37F583004077F78808B
:1007880003B908031204C33002057F2D0204C37F96
:10079800202008F87F2B2006F322920280CF286EB3
:1007A800756C6C2900D2011204803001F8C20178FE
:1007B8000930D50108F602052F2D50434958120477
:1007C800802403B405004001E49007C1931204B4E7
:0D07D800743A1204B4D20375090402061429
:100DED00BB010689828A83E0225002E722BBFE0204
:090DFD00E32289828A83E4932237
:100E0600BB010CE58229F582E5833AF583E02250A1
:100E160006E92582F8E622BBFE06E92582F8E222EB
:0D0E2600E58229F582E5833AF583E4932205
:100E3300BB010689828A83F0225002F722BBFE019E
:020E4300F32298
:100E4500F8E0FBA3A3E0F925F0F0E5821582700236
:070E55001583E0FA38F022DA
:090E5C00EBF0A3EAF0A3E9F02297
:100E6500D083D082F8E4937012740193700DA3A31C
:100E750093F8740193F5828883E473740293686030
:060E8500EFA3A3A380DF30
:00000001FF
