:030000000207A54F
:0C07A500787FE4F6D8FD7581210207EC96
:1000870043BC807F0A7E00120BDE53DEFC43DE0C8E
:0A00970053BCDF53A8DF43DE202234
:100B9D00E4FDFC53BCF0EF444042BCE5BC30E5FB4A
:100BAD0053BCDF53BCBFAFBDEFADBEFCEDAE04FF1C
:010BBD002215
:0D000E00E4F5C7F5C5F5C675C380F5C4223D
:100C1D0075C78075F50C75C5038FC4EEF5C375C624
:0E0C2D005A75C6A57F0A7E00120BDE02000E6D
:100B7B0075C78075F50C75C5028FC4EEF5C3AF054F
:100B8B008FC275C65A75C6A57F0A7E00120BDE0290
:020B9B00000E4A
:100BBE0075C78075F50C75C5018FC4EEF5C375C686
:100BCE005A75C6A57F0A7E00120BDEAFC202000E5A
:100B2A0075940A759370E4F592F5917596CEF595DC
:100B3A0075B220F5B175B41EF5B375CA01F5C9755C
:0A0B4A00CC10F5CB75E260F5E12256
:100BFE003D3D3D3D3D3D3D3D20636F64652073743D
:0F0C0E00617274203D3D3D3D3D3D3D3D0D0A0071
:100A5D0043BA80120B2A120087120C821200061262
:100A6D000CEC1209DB120C3B120CBE120C6C120CAE
:100A7D0054D2AF120B547BFF7A0B79FE1201111277
:070A8D000A9412063B80F8F9
:1009DB0043BA8090FEB6E0F090FEEDE4F090FEEAB4
:1009EB007470F0A3F090FEED7411F090FEF27404AD
:1009FB00F0A37451F090FEF0E4F0A37431F090FE8C
:100A0B00B5E04450F090FEFD7480F090FEE0E044C1
:030A1B0001F022C5
:05000600D288D2A822FF
:100CBE00438E805389F0758ACD758CD4C28DD28CBB
:030CCE00D2A92286
:0A0CEC00538EBF53890F4389102275
:100C540053A23F759850438E01438E0475D7E875AF
:080C6400D6FF438E10D2AC2232
:100C6C0075841043844043D12075D3E875D2FF437B
:060C7C00D18043AF1022FD
:100B54007F107E00120BBEEFB4FF1990023B74337A
:100B6400F0A37411F0A374A1F0A37450F0A3F0A344
:070B7400F012093E02070A1E
:10093E00E4FFFE120C1D90023BE0FDE4FFFE120BE5
:10094E007B90023CE0FD7F017E00120B7B90023D0E
:10095E00E0FD7F027E00120B7B90023EE0FD7F03E6
:10096E007E00120B7B90023FE0FD7F047E00120B97
:10097E007B900240E0FD7F057E00120B7B7D587F51
:06098E00107E00020B7B4D
:10070A00E4FFFE120BBE90023BEFF0E075F0B8A4D6
:10071A00FFAEF090FEF9EEF0A3EFF0A3EEF0A3EF38
:10072A00F07F017E00120BBE90023CEFF0E0FDC3A9
:10073A0074019D540190020CF0EDC45401FFC3747E
:10074A00019FA3F07F027E00120BBE90023DEFF0E4
:10075A0030E004D2A88002C2A890023DE0C313FF91
:10076A00120C967F037E00120BBE90023EEFF07FC2
:10077A00047E00120BBE90023FEFF07F057E00124E
:10078A000BBE900240EFF090023EE090010BF09019
:0A079A00023FE090010CF0A3EFF025
:0107A4002232
:1005360060FC011003D503FA04200446046D0495FB
:1005460004BE04E70510053A0565059005BB05E7F9
:100556000613063F066C069906C606F30720074DE6
:10056600077A07A707D40800082D0859088508B197
:1005760008DC09070931095B098409AD09D609FDBB
:100586000A240A4B0A710A960ABB0ADE0B020B24DE
:100596000B460B670B870BA70BC60BE40C020C1E56
:1005A6000C3A0C560C700C8A0CA40CBC0CD40CEC3B
:1005B6000D020D190D2E0D430D570D6B0D7E0D9071
:1005C6000DA20DB40DC50DD50DE50DF50E040E12DB
:1005D6000E200E2E0E3B0E480E550E610E6D0E7839
:1005E6000E830E8D0E970EA10EAB0EB40EBD0EC66B
:1005F6000ECF0ED70EDF0EE70EEF0EF60EFD0F0432
:100606000F0B0F110F170F1D0F230F290F2F0F356C
:100616000F3A0F3F0F440F490F4E0F530F580F5C01
:100626000F600F650F690F6D0F710F740F780F7CD8
:0E083100900210EBF0A3EAF0A3E9F0A3EDF0C3
:10083F00E4900217F0A3F0900216F0900213E01468
:10084F00FF900216E0FEC39F505A900210E0FBA3E8
:10085F00E0FAA3E0F975F002EEA4F58285F08312B9
:10086F000460FF900214E0FCA3E0FDC39FEC95F041
:10087F00402AA3E02401FFE433FEEF25E0FFEE332F
:10088F00FE8F828E83120460FFC3ED9FEC95F050B4
:10089F000B900216E0FFA3E4F0A3EFF0900216E036
:0C08AF0004F08097900217E0FEA3E0FF29
:0108BB00221A
:0500260090020CEFF058
:10002B00E490020EF0A3F090020DF090020CE0FFB2
:10003B00120B9D90020FE02FF090020EE03EF0901D
:10004B00020DE004F0E0C3940A40E090020EE0FEE3
:10005B00A3E0FF7C007D0A12040B90020EEEF0A3CE
:10006B00EFF07B017A01791090020EE0FFA3E09094
:0C007B000214CFF0A3EFF07D7E020831EC
:100A940090010EE06401702B7F0C12002690010877
:100AA400EFF090010BE0FEEFC39E400AD2C4D2C324
:100AB400D2C2D2C18008C2C4C2C3C2C2C2C1E490FD
:040AC400010EF0220D
:100C8200E4900246F0900243F0A3F0A3F0D2C3D264
:040C9200C2D2C122E7
:03000300020AFCF2
:100AFC00C0E0C083C082C0D075D000C00690024157
:100B0C00E0FEA3E0F58BEEF58D9002467401F0D279
:0E0B1C008ED2ABD006D0D0D082D083D0E032C3
:03001B0002099443
:10099400C0E0C083C082C0D0900246E064017024ED
:1009A400F0900243E0B40102C2C1900244E0B401F9
:1009B40002C2C2900245E0B40102C2C3758BF7754E
:1009C4008DFF800AD2C3D2C2D2C1C28EC2ABD0D0F4
:0709D400D082D083D0E03295
:100C9600EF75F04BA42490FEE5F034E2900241F0AB
:040CA600A3CEF022C7
:0A0CF600EFB40103C2A722D2A72227
:0A0D0000EFB40103C2A722D2A7221C
:040636004101070077
:100C3B00E4900000F0A3F0900082F0900102F0F03D
:090C4B00A3F0A3F0A3F0A3F02232
:0300A3000208BC94
:1008BC00C0E0C083C082C0D075D000C007E58430D2
:1008CC00E12D5384FD900000E4F0900102E0601AE9
:1008DC00A3E0FF04F074022FF582E43400F583E00A
:1008EC00F585900102E014F08005900103E4F0E539
:1008FC008430E0335384FE900001E07021900106B7
:10090C00E0D394804002E4F0900106E02482F5826A
:10091C00E43400F583E585F0900106E004F09001E5
:10092C0004E4F0A37432F0D007D0D0D082D083D0BE
:02093C00E032A7
:03000B00020A1EC8
:100A1E00C0E0C083C082C0D0900104E07002A3E0A9
:100A2E006024900105E024FFF0900104E034FFF013
:100A3E00E07002A3E0700F900106E0D39400400630
:0F0A4E009000017401F0D0D0D082D083D0E0327C
:03002300020AC806
:100AC800C0E0C083C082C0D0A299E4335598600CBE
:100AD800A299B3E4335298900107E4F0A298E43362
:100AE80055986007A298B3E4335298D0D0D082D0FA
:040AF80083D0E03295
:0B0CE1008F99900107E070FA04F022E8
:100CAA00EF90FEF9B401087404F0A37451F022E441
:040CBA00F0A3F02291
:100CD100EF75F0B8A4FF90FEFBE5F0F0A3EFF02272
:100BDE00D3EF9400EE9400401600000075080B75DC
:0F0BEE0009BED509FDD508FAEF1F70E41E80E19E
:010BFD0022D5
:10063B00900001E064016003020709F0900106F0ED
:10064B00900082E064516003020709A3E024EB6091
:10065B00302475B40800400302070990067475F046
:10066B0003A4C58325F0C5837302069F0206A80267
:10067B0006B00206B90206C10206C90206D102067D
:10068B00E99000027451F07415F09001027402F0BD
:10069B0043840222900084E024FF92A822900084DD
:1006AB00E0FF020CD1900084E024FF92FD22900029
:1006BB0084E0FF120CAA900084E0FF120CF690006D
:1006CB0084E0FF120D00900084E090010BF090008D
:1006DB0085E090010CF0900086E090010DF0900009
:1006EB0084E0900247F0900085E0900248F0900083
:0F06FB0086E0900249F0900087E090024AF022DA
:1007B100020A5DE493A3F8E493A34003F68001F2F7
:1007C10008DFF48029E493A3F85407240CC8C33349
:1007D100C4540F4420C8834004F456800146F6DF18
:1007E100E4800B0102040810204080900536E47E6D
:1007F100019360BCA3FF543F30E509541FFEE4930D
:10080100A360010ECF54C025E060A840B8E493A3D3
:10081100FAE493A3F8E493A3C8C582C8CAC583CAFE
:10082100F0A3C8C582C8CAC583CADFE9DEE780BEB6
:01063A0000BF
:10040B00BC000BBE0029EF8DF084FFADF022E4CCD5
:10041B00F875F008EF2FFFEE33FEEC33FCEE9DEC9E
:10042B00984005FCEE9DFE0FD5F0E9E4CEFD22EDE4
:10043B00F8F5F0EE8420D21CFEADF075F008EF2F2E
:10044B00FFED33FD4007985006D5F0F222C398FD1F
:05045B000FD5F0EA22BC
:10046000BB0110E58229F582E5833AF583E0F5F0DA
:10047000A3E0225009E92582F886F008E622BBFEB7
:100480000AE92582F8E2F5F008E222E5832AF583FD
:08049000E993F5F0A3E99322C2
:1000A600E508240FF582E43402F583E00508229082
:1000B600020C30070390020FE475F0011204F002FF
:1000C60004982000E97F2ED2008018EF540F249068
:1000D600D43440D4FF30040BEF24BFB41A005003CD
:1000E6002461FFE50960021509050CE50C7002059F
:1000F6000B30070E90020CE475F0011204F0EF02CB
:1001060004DE020CE17403D2078003E4C207F5089B
:1001160090020C120507E4F509F50BF50CE50960EC
:10012600077F201200E980F5750AFFC201C200C2EE
:1001360002C203C205C206C2081200B5FF700D3026
:1001460007057F001200FAAF0CAE0B22B4255FC282
:10015600D5C2041200B5FF24D0B40A00501A75F0B7
:100166000A780930D50508B6FF0106C6A426F6208A
:10017600D5047002D20380D924CFB41A00EF5004FC
:10018600C2E5D2040202FBD20180C6D20080C0D2F0
:100196000280BCD2D580BAD20580B47F201200E995
:1001A6002002077401B5090040F11200A6FF1200F3
:1001B600E9020123D208D20680951200A6FB12009E
:1001C600A6FA1200A6F94A4B700679CC7A037BFF91
:1001D60020022EE509602A7E008E827583001204B5
:1001E600B160060EEE650A70F0C2D5EBC0E0EAC05B
:1001F600E0E9C0E0EE120342D0E0F9D0E0FAD0E048
:10020600FB120498FF60AAEBC0E0EAC0E0E9C0E098
:100216001200E9D0E02401F9D0E03400FAD0E0FB86
:10022600E50A0460DCD50AD980877BFF7A03793E2C
:10023600D202809C791080027908C206C208800822
:10024600D2D5790A8004790AC2D5E50A047002F586
:100256000AE4FAFDFEFF1200A6FC7B082001131239
:1002660000A6FD7B1030000A1200A6FE1200A6FFB3
:100276007B20EC3382D592D55013C3E43000069F21
:10028600FFE49EFEE42001039DFDE49CFCE4CBF824
:10029600C201EC700CCFCECDCCE824F8F870F38018
:1002A60017C3EF33FFEE33FEED33FDEC33FCEB33D8
:1002B600FB994002FB0FD8E9EB300105F8D0E0C40A
:1002C60048B201C0E00AEC4D4E4F78207B0070C268
:1002D600EAB50A0040BCC0E0120344D0F0D0E020EA
:1002E6000104C4C0E0C4B201C0F01200D2D0F0D5FF
:1002F600F0EB02012312051001C053023A58019196
:100306004C018D42023E4F02464402464901A64335
:08031600024C55023046023092
:10031E004502304703EC5001952D01992E01BC2B5F
:10032E00019D2301BA2003D52A015548000001B4CE
:10033E003F3F3F00790AA2D5200314300509B910BA
:10034E00020404B9080104A2D520060250010420BB
:10035E0002689202B509005034C0E07F20300319C4
:10036E007F30A20272067205500F12039BC202C2A8
:10037E0006C205C2087F30800F300503E9C0E012C7
:10038E0000E9300503D0E0F9D0E0B509CC3005170F
:10039E007F30B9100C1200E97F583004077F788047
:1003AE0003B908031200E93002057F2D0200E97F30
:1003BE00202008F87F2B2006F322920280CF286E91
:1003CE00756C6C2900D2011200A63001F8C20178BA
:1003DE000930D50108F60201552D50434958120037
:1003EE00A62403B405004001E49003E7931200DA5B
:0D03FE00743A1200DAD20375090402023AC3
:10049800BB010689828A83E0225002E722BBFE0262
:0904A800E32289828A83E4932295
:1004B100BB010CE58229F582E5833AF583E0225000
:1004C10006E92582F8E622BBFE06E92582F8E2224A
:0D04D100E58229F582E5833AF583E4932264
:1004DE00BB010689828A83F0225002F722BBFE01FD
:0204EE00F322F7
:1004F000F8E0FBA3A3E0F925F0F0E5821582700295
:070500001583E0FA38F02238
:09050700EBF0A3EAF0A3E9F022F5
:10051000D083D082F8E4937012740193700DA3A37A
:1005200093F8740193F5828883E47374029368608E
:06053000EFA3A3A380DF8E
:00000001FF
